{
  "abi": [
    {
      "inputs": [
        {
          "internalType": "address",
          "name": "_tokenIn",
          "type": "address"
        },
        {
          "internalType": "address",
          "name": "_tokenOut",
          "type": "address"
        },
        {
          "internalType": "uint256",
          "name": "_amountIn",
          "type": "uint256"
        },
        {
          "internalType": "uint256",
          "name": "_amountOutMin",
          "type": "uint256"
        },
        {
          "internalType": "address",
          "name": "_to",
          "type": "address"
        }
      ],
      "name": "swap",
      "outputs": [],
      "stateMutability": "nonpayable",
      "type": "function"
    }
  ],
  "bytecode": "608060405234801561001057600080fd5b506104c9806100206000396000f3fe608060405234801561001057600080fd5b506004361061002b5760003560e01c8063d5bcb9b514610030575b600080fd5b61004361003e3660046102b8565b610045565b005b6040516323b872dd60e01b8152336004820152306024820152604481018490526001600160a01b038616906323b872dd906064016020604051808303816000875af1158015610098573d6000803e3d6000fd5b505050506040513d601f19601f820116820180604052508101906100bc919061030f565b5060405163095ea7b360e01b8152737a250d5630b4cf539739df2c5dacb4c659f2488d6004820152602481018490526001600160a01b0386169063095ea7b3906044016020604051808303816000875af115801561011e573d6000803e3d6000fd5b505050506040513d601f19601f82011682018060405250810190610142919061030f565b506040805160038082526080820190925260609160208201838036833701905050905085816000815181106101795761017961034e565b60200260200101906001600160a01b031690816001600160a01b03168152505073c02aaa39b223fe8d0a0e5c4f27ead9083c756cc2816001815181106101c1576101c161034e565b60200260200101906001600160a01b031690816001600160a01b03168152505084816002815181106101f5576101f561034e565b6001600160a01b03909216602092830291909101909101526040516338ed173960e01b8152737a250d5630b4cf539739df2c5dacb4c659f2488d906338ed17399061024c9087908790869088904290600401610364565b6000604051808303816000875af115801561026b573d6000803e3d6000fd5b505050506040513d6000823e601f3d908101601f1916820160405261029391908101906103d5565b50505050505050565b80356001600160a01b03811681146102b357600080fd5b919050565b600080600080600060a086880312156102d057600080fd5b6102d98661029c565b94506102e76020870161029c565b935060408601359250606086013591506103036080870161029c565b90509295509295909350565b60006020828403121561032157600080fd5b8151801515811461033157600080fd5b9392505050565b634e487b7160e01b600052604160045260246000fd5b634e487b7160e01b600052603260045260246000fd5b600060a082018783526020878185015260a0604085015281875180845260c086019150828901935060005b818110156103b45784516001600160a01b03168352938301939183019160010161038f565b50506001600160a01b03969096166060850152505050608001529392505050565b600060208083850312156103e857600080fd5b825167ffffffffffffffff8082111561040057600080fd5b818501915085601f83011261041457600080fd5b81518181111561042657610426610338565b8060051b604051601f19603f8301168101818110858211171561044b5761044b610338565b60405291825284820192508381018501918883111561046957600080fd5b938501935b828510156104875784518452938501939285019261046e565b9897505050505050505056fea2646970667358221220beeebe3374d20f3160b07e98488f30f2c79d2daab5b7b80d02f969996eabd0f164736f6c634300080a0033",
  "bytecodeSha1": "58e5837f446702aa44671739a3c3ce4917d4d46a",
  "compiler": {
    "evm_version": "istanbul",
    "optimizer": {
      "enabled": true,
      "runs": 200
    },
    "version": "0.8.10+commit.fc410830"
  },
  "contractName": "SwapToken",
  "language": "Solidity",
  "natspec": {
    "kind": "dev",
    "methods": {},
    "version": 1
  },
  "opcodes": "PUSH1 0x80 PUSH1 0x40 MSTORE CALLVALUE DUP1 ISZERO PUSH2 0x10 JUMPI PUSH1 0x0 DUP1 REVERT JUMPDEST POP PUSH1 0x4 CALLDATASIZE LT PUSH2 0x2B JUMPI PUSH1 0x0 CALLDATALOAD PUSH1 0xE0 SHR DUP1 PUSH4 0xD5BCB9B5 EQ PUSH2 0x30 JUMPI JUMPDEST PUSH1 0x0 DUP1 REVERT JUMPDEST PUSH2 0x43 PUSH2 0x3E CALLDATASIZE PUSH1 0x4 PUSH2 0x2B8 JUMP JUMPDEST PUSH2 0x45 JUMP JUMPDEST STOP JUMPDEST PUSH1 0x40 MLOAD PUSH4 0x23B872DD PUSH1 0xE0 SHL DUP2 MSTORE CALLER PUSH1 0x4 DUP3 ADD MSTORE ADDRESS PUSH1 0x24 DUP3 ADD MSTORE PUSH1 0x44 DUP2 ADD DUP5 SWAP1 MSTORE PUSH1 0x1 PUSH1 0x1 PUSH1 0xA0 SHL SUB DUP7 AND SWAP1 PUSH4 0x23B872DD SWAP1 PUSH1 0x64 ADD PUSH1 0x20 PUSH1 0x40 MLOAD DUP1 DUP4 SUB DUP2 PUSH1 0x0 DUP8 GAS CALL ISZERO DUP1 ISZERO PUSH2 0x98 JUMPI RETURNDATASIZE PUSH1 0x0 DUP1 RETURNDATACOPY RETURNDATASIZE PUSH1 0x0 REVERT JUMPDEST POP POP POP POP PUSH1 0x40 MLOAD RETURNDATASIZE PUSH1 0x1F NOT PUSH1 0x1F DUP3 ADD AND DUP3 ADD DUP1 PUSH1 0x40 MSTORE POP DUP2 ADD SWAP1 PUSH2 0xBC SWAP2 SWAP1 PUSH2 0x30F JUMP JUMPDEST POP PUSH1 0x40 MLOAD PUSH4 0x95EA7B3 PUSH1 0xE0 SHL DUP2 MSTORE PUSH20 0x7A250D5630B4CF539739DF2C5DACB4C659F2488D PUSH1 0x4 DUP3 ADD MSTORE PUSH1 0x24 DUP2 ADD DUP5 SWAP1 MSTORE PUSH1 0x1 PUSH1 0x1 PUSH1 0xA0 SHL SUB DUP7 AND SWAP1 PUSH4 0x95EA7B3 SWAP1 PUSH1 0x44 ADD PUSH1 0x20 PUSH1 0x40 MLOAD DUP1 DUP4 SUB DUP2 PUSH1 0x0 DUP8 GAS CALL ISZERO DUP1 ISZERO PUSH2 0x11E JUMPI RETURNDATASIZE PUSH1 0x0 DUP1 RETURNDATACOPY RETURNDATASIZE PUSH1 0x0 REVERT JUMPDEST POP POP POP POP PUSH1 0x40 MLOAD RETURNDATASIZE PUSH1 0x1F NOT PUSH1 0x1F DUP3 ADD AND DUP3 ADD DUP1 PUSH1 0x40 MSTORE POP DUP2 ADD SWAP1 PUSH2 0x142 SWAP2 SWAP1 PUSH2 0x30F JUMP JUMPDEST POP PUSH1 0x40 DUP1 MLOAD PUSH1 0x3 DUP1 DUP3 MSTORE PUSH1 0x80 DUP3 ADD SWAP1 SWAP3 MSTORE PUSH1 0x60 SWAP2 PUSH1 0x20 DUP3 ADD DUP4 DUP1 CALLDATASIZE DUP4 CALLDATACOPY ADD SWAP1 POP POP SWAP1 POP DUP6 DUP2 PUSH1 0x0 DUP2 MLOAD DUP2 LT PUSH2 0x179 JUMPI PUSH2 0x179 PUSH2 0x34E JUMP JUMPDEST PUSH1 0x20 MUL PUSH1 0x20 ADD ADD SWAP1 PUSH1 0x1 PUSH1 0x1 PUSH1 0xA0 SHL SUB AND SWAP1 DUP2 PUSH1 0x1 PUSH1 0x1 PUSH1 0xA0 SHL SUB AND DUP2 MSTORE POP POP PUSH20 0xC02AAA39B223FE8D0A0E5C4F27EAD9083C756CC2 DUP2 PUSH1 0x1 DUP2 MLOAD DUP2 LT PUSH2 0x1C1 JUMPI PUSH2 0x1C1 PUSH2 0x34E JUMP JUMPDEST PUSH1 0x20 MUL PUSH1 0x20 ADD ADD SWAP1 PUSH1 0x1 PUSH1 0x1 PUSH1 0xA0 SHL SUB AND SWAP1 DUP2 PUSH1 0x1 PUSH1 0x1 PUSH1 0xA0 SHL SUB AND DUP2 MSTORE POP POP DUP5 DUP2 PUSH1 0x2 DUP2 MLOAD DUP2 LT PUSH2 0x1F5 JUMPI PUSH2 0x1F5 PUSH2 0x34E JUMP JUMPDEST PUSH1 0x1 PUSH1 0x1 PUSH1 0xA0 SHL SUB SWAP1 SWAP3 AND PUSH1 0x20 SWAP3 DUP4 MUL SWAP2 SWAP1 SWAP2 ADD SWAP1 SWAP2 ADD MSTORE PUSH1 0x40 MLOAD PUSH4 0x38ED1739 PUSH1 0xE0 SHL DUP2 MSTORE PUSH20 0x7A250D5630B4CF539739DF2C5DACB4C659F2488D SWAP1 PUSH4 0x38ED1739 SWAP1 PUSH2 0x24C SWAP1 DUP8 SWAP1 DUP8 SWAP1 DUP7 SWAP1 DUP9 SWAP1 TIMESTAMP SWAP1 PUSH1 0x4 ADD PUSH2 0x364 JUMP JUMPDEST PUSH1 0x0 PUSH1 0x40 MLOAD DUP1 DUP4 SUB DUP2 PUSH1 0x0 DUP8 GAS CALL ISZERO DUP1 ISZERO PUSH2 0x26B JUMPI RETURNDATASIZE PUSH1 0x0 DUP1 RETURNDATACOPY RETURNDATASIZE PUSH1 0x0 REVERT JUMPDEST POP POP POP POP PUSH1 0x40 MLOAD RETURNDATASIZE PUSH1 0x0 DUP3 RETURNDATACOPY PUSH1 0x1F RETURNDATASIZE SWAP1 DUP2 ADD PUSH1 0x1F NOT AND DUP3 ADD PUSH1 0x40 MSTORE PUSH2 0x293 SWAP2 SWAP1 DUP2 ADD SWAP1 PUSH2 0x3D5 JUMP JUMPDEST POP POP POP POP POP POP POP JUMP JUMPDEST DUP1 CALLDATALOAD PUSH1 0x1 PUSH1 0x1 PUSH1 0xA0 SHL SUB DUP2 AND DUP2 EQ PUSH2 0x2B3 JUMPI PUSH1 0x0 DUP1 REVERT JUMPDEST SWAP2 SWAP1 POP JUMP JUMPDEST PUSH1 0x0 DUP1 PUSH1 0x0 DUP1 PUSH1 0x0 PUSH1 0xA0 DUP7 DUP9 SUB SLT ISZERO PUSH2 0x2D0 JUMPI PUSH1 0x0 DUP1 REVERT JUMPDEST PUSH2 0x2D9 DUP7 PUSH2 0x29C JUMP JUMPDEST SWAP5 POP PUSH2 0x2E7 PUSH1 0x20 DUP8 ADD PUSH2 0x29C JUMP JUMPDEST SWAP4 POP PUSH1 0x40 DUP7 ADD CALLDATALOAD SWAP3 POP PUSH1 0x60 DUP7 ADD CALLDATALOAD SWAP2 POP PUSH2 0x303 PUSH1 0x80 DUP8 ADD PUSH2 0x29C JUMP JUMPDEST SWAP1 POP SWAP3 SWAP6 POP SWAP3 SWAP6 SWAP1 SWAP4 POP JUMP JUMPDEST PUSH1 0x0 PUSH1 0x20 DUP3 DUP5 SUB SLT ISZERO PUSH2 0x321 JUMPI PUSH1 0x0 DUP1 REVERT JUMPDEST DUP2 MLOAD DUP1 ISZERO ISZERO DUP2 EQ PUSH2 0x331 JUMPI PUSH1 0x0 DUP1 REVERT JUMPDEST SWAP4 SWAP3 POP POP POP JUMP JUMPDEST PUSH4 0x4E487B71 PUSH1 0xE0 SHL PUSH1 0x0 MSTORE PUSH1 0x41 PUSH1 0x4 MSTORE PUSH1 0x24 PUSH1 0x0 REVERT JUMPDEST PUSH4 0x4E487B71 PUSH1 0xE0 SHL PUSH1 0x0 MSTORE PUSH1 0x32 PUSH1 0x4 MSTORE PUSH1 0x24 PUSH1 0x0 REVERT JUMPDEST PUSH1 0x0 PUSH1 0xA0 DUP3 ADD DUP8 DUP4 MSTORE PUSH1 0x20 DUP8 DUP2 DUP6 ADD MSTORE PUSH1 0xA0 PUSH1 0x40 DUP6 ADD MSTORE DUP2 DUP8 MLOAD DUP1 DUP5 MSTORE PUSH1 0xC0 DUP7 ADD SWAP2 POP DUP3 DUP10 ADD SWAP4 POP PUSH1 0x0 JUMPDEST DUP2 DUP2 LT ISZERO PUSH2 0x3B4 JUMPI DUP5 MLOAD PUSH1 0x1 PUSH1 0x1 PUSH1 0xA0 SHL SUB AND DUP4 MSTORE SWAP4 DUP4 ADD SWAP4 SWAP2 DUP4 ADD SWAP2 PUSH1 0x1 ADD PUSH2 0x38F JUMP JUMPDEST POP POP PUSH1 0x1 PUSH1 0x1 PUSH1 0xA0 SHL SUB SWAP7 SWAP1 SWAP7 AND PUSH1 0x60 DUP6 ADD MSTORE POP POP POP PUSH1 0x80 ADD MSTORE SWAP4 SWAP3 POP POP POP JUMP JUMPDEST PUSH1 0x0 PUSH1 0x20 DUP1 DUP4 DUP6 SUB SLT ISZERO PUSH2 0x3E8 JUMPI PUSH1 0x0 DUP1 REVERT JUMPDEST DUP3 MLOAD PUSH8 0xFFFFFFFFFFFFFFFF DUP1 DUP3 GT ISZERO PUSH2 0x400 JUMPI PUSH1 0x0 DUP1 REVERT JUMPDEST DUP2 DUP6 ADD SWAP2 POP DUP6 PUSH1 0x1F DUP4 ADD SLT PUSH2 0x414 JUMPI PUSH1 0x0 DUP1 REVERT JUMPDEST DUP2 MLOAD DUP2 DUP2 GT ISZERO PUSH2 0x426 JUMPI PUSH2 0x426 PUSH2 0x338 JUMP JUMPDEST DUP1 PUSH1 0x5 SHL PUSH1 0x40 MLOAD PUSH1 0x1F NOT PUSH1 0x3F DUP4 ADD AND DUP2 ADD DUP2 DUP2 LT DUP6 DUP3 GT OR ISZERO PUSH2 0x44B JUMPI PUSH2 0x44B PUSH2 0x338 JUMP JUMPDEST PUSH1 0x40 MSTORE SWAP2 DUP3 MSTORE DUP5 DUP3 ADD SWAP3 POP DUP4 DUP2 ADD DUP6 ADD SWAP2 DUP9 DUP4 GT ISZERO PUSH2 0x469 JUMPI PUSH1 0x0 DUP1 REVERT JUMPDEST SWAP4 DUP6 ADD SWAP4 JUMPDEST DUP3 DUP6 LT ISZERO PUSH2 0x487 JUMPI DUP5 MLOAD DUP5 MSTORE SWAP4 DUP6 ADD SWAP4 SWAP3 DUP6 ADD SWAP3 PUSH2 0x46E JUMP JUMPDEST SWAP9 SWAP8 POP POP POP POP POP POP POP POP JUMP INVALID LOG2 PUSH5 0x6970667358 0x22 SLT KECCAK256 0xBE 0xEE 0xBE CALLER PUSH21 0xD20F3160B07E98488F30F2C79D2DAAB5B7B80D02F9 PUSH10 0x996EABD0F164736F6C63 NUMBER STOP ADDMOD EXP STOP CALLER ",
  "sha1": "ab74f425439f7914a85192372852313b3008640b",
  "source": "// SPDX-License-Identifier: MIT\npragma solidity =0.8.10;\nimport \"./interfaces/IERC20.sol\";\nimport \"./interfaces/Uniswap.sol\";\n\ncontract SwapToken {\n  address private constant UNISWAP_V2_ROUTER = 0x7a250d5630B4cF539739dF2C5dAcb4c659F2488D;\n  address private constant WETH = 0xC02aaA39b223FE8D0A0e5C4F27eAD9083C756Cc2;\n  function swap(\n    address _tokenIn,\n    address _tokenOut,\n    uint _amountIn,\n    uint _amountOutMin,\n    address _to\n  ) external {\n    IERC20(_tokenIn).transferFrom(msg.sender, address(this), _amountIn);\n    IERC20(_tokenIn).approve(UNISWAP_V2_ROUTER, _amountIn);\n    \n    address[] memory path;\n    path = new address[](3);\n    path[0] = _tokenIn;\n    path[1] = WETH;\n    path[2] = _tokenOut;\n\n    IUniswapV2Router(UNISWAP_V2_ROUTER).swapExactTokensForTokens(\n      _amountIn,\n      _amountOutMin,\n      path,\n      _to,\n      block.timestamp\n    );\n  }\n}\n",
  "sourcePath": "contracts/SwapToken.sol",
  "type": "contract"
}